S00B000068617A692E7333373D
S11300000000022091010000BD010000BD010000BC
S1130010BD010000BD010000BD010000BD010000E4
S1130020BD010000BD010000BD010000BD010000D4
S1130030BD010000BC010000BD010000B1270000AB
S1130040BD010000BD010000BD010000BD010000B4
S1130050BD010000BD010000BD010000BD010000A4
S1130060BD010000BD010000BD010000BD01000094
S1130070BD010000BD010000BD010000BD01000084
S1130080BD010000BD010000BD010000BD01000074
S1130090BD010000BD010000BD010000BD01000064
S11300A0BD010000BD010000BD010000BD01000054
S11300B0BD010000BD010000BD010000BD01000044
S11300C0BD010000BD010000BD010000BD01000034
S11300D0BD010000BD010000BD01000010B5054CCC
S11300E0237833B9044B13B10448AFF300800123E0
S11300F0237010BD780000200000000018380000B4
S113010008B5034B1BB103490348AFF3008008BD96
S1130110000000007C00002018380000154B002B64
S113012008BF134B9D46A3F5803A00218B460F462A
S11301301348144A121A02F016FD0F4B002B00D07C
S113014098470E4B002B00D0984700200021040054
S11301500D000D48002802D00C48AFF3008002F0D7
S1130160D3FC2000290002F031FB02F0B9FC00BFEF
S11301700000080000000220000000000000000051
S113018078000020C80100200000000000000000EA
S1130190064880470649074A074B9A42BEBF51F8B2
S11301A0040B42F8040BF8E7FFF7B8FF350300002F
S11301B0243800000000002078000020FEE700BF83
S11301C080B400AF034BDB6C1B0EDBB21846BD469C
S11301D080BC7047B081E00F80B582B000AF00F002
S11301E01FF87860074B5B6803F00F037A6822FA04
S11301F003F37B60044A7B6813607B681846083706
S1130200BD4680BD00800C400800002080B400AFD3
S1130210024B1846BD4680BC704700BF006CDC0230
S113022080B582B000AF334BDB6A03F47053B3F58F
S1130230805F0AD0B3F5005F03D0B3F5006F08D038
S11302400BE02D4B1B687B6047E04FF400437B6061
S113025043E02A4B1B687B603FE0264BDB6803F4DA
S1130260E063B3F5007F1BD0B3F5007F05D8002B06
S113027024D0B3F5807F16D02BE0B3F5806F09D07E
S1130280B3F5A06F03D0B3F5407F06D021E01C4B3B
S11302907B6021E01B4B7B601EE01B4B7B601BE003
S11302A01A4B7B6018E0FFF78BFF0346122B02D931
S11302B0174B7B6010E0174B7B600DE0FFF780FF6E
S11302C00346122B02D9144B7B6005E0134B7B6071
S11302D002E000237B6000BF00BF064B1B689B0B42
S11302E003F0070301337A68B2FBF3F318460837C7
S11302F0BD4680BD00800C400400002000000020AA
S1130300003FAB01406F4001809FD500C0D8A700DB
S113031040B56400C0CF6A00804F120040420F0015
S113032080B400AF024B1B681846BD4680BC7047C2
S11303300000002080B400AF034B044A9A6000BF61
S1130340BD4680BC704700BF00ED00E00000000027
S113035080B400AF4FF400431846BD4680BC7047DC
S113036080B400AF4FF47A731846BD4680BC704722
S113037080B400AF024B1B681846BD4680BC704772
S11303800400002080B483B000AF03463960FB71E1
S1130390FB79002B0DD0FB79012B0AD0FB79022BC2
S11303A007D0FB79032B04D0FB79042B01D0FB7914
S11303B0052B01223B6802FA03F30749FA79184630
S11303C01346DB0013449B000B441433186000BF36
S11303D00C37BD4680BC70470060004080B483B0D9
S11303E000AF03463960FB71FB79002B0DD0FB791C
S11303F0012B0AD0FB79022B07D0FB79032B04D005
S1130400FB79042B01D0FB79052B01223B6802FA0E
S113041003F30749FA7918461346DB0013449B009B
S11304200B441833186000BF0C37BD4680BC7047BE
S11304300060004080B582B000AF0121104800F098
S113044019FD01210F4800F015FD00237B600FE02A
S11304500D4A7B6812F833000B4A7B68DB001344B7
S113046059680023042201F037F97B6801337B606B
S11304707B68012BECDD002318460837BD4680BDA0
S11304804081040000D204008C34000080B582B0A6
S113049000AF78607B68002B10DB7B68012B0DDCE0
S11304A0094A7B6812F83300074A7B68DB0013446F
S11304B05B681946FFF766FF002301E04FF0FF3346
S11304C018460837BD4680BD8C34000080B582B024
S11304D000AF78607B68002B10DB7B68012B0DDCA0
S11304E0094A7B6812F83300074A7B68DB0013442F
S11304F05B681946FFF772FF002301E04FF0FF33FA
S113050018460837BD4680BD8C34000080B487B0DF
S113051000AFF860B9607A60FB6803F10473DA0035
S1130520BB6813449B007B617B697A681A6000BFD7
S11305301C37BD4680BC704780B485B000AF78607E
S113054039607B6803F10473DA003B6813449B0051
S1130550FB60FB681B6818461437BD4680BC7047B7
S113056080B483B000AF786001227B6802FA03F3A1
S113057018460C37BD4680BC704780B485B000AFC8
S113058078607B68002B03D07B68B3F5004F00BF15
S11305907B68B3FA83F3DBB2C3F11F03FB60FB6830
S11305A018461437BD4680BC7047000080B400AFC5
S11305B0034BDB6C1B0EDBB21846BD4680BC704798
S11305C0B081E00F80B400AF034BDB6C1B0CDBB2DB
S11305D01846BD4680BC7047B081E00F80B582B03C
S11305E000AFFFF7EFFF03464A2B04D0792B02D06C
S11305F0482B23D024E0154B1B699BB21B029BB2F2
S113060003F47C53FB80114B9B691B091B0103F012
S1130610F0039AB2FB881343FB800C4BDB691B0984
S113062003F00F039AB2FB881343FB80FB88B3F5F6
S1130630017F01D3064B04E0064B02E0054B00E0CA
S1130640002318460837BD4680BD00BFD0FF0FE029
S113065000366E010048E80180B584B000AF7860D0
S11306600123FB60FFF7BAFF02467B68934204D87C
S11306700023FB600023BB600BE0FFF7AFFF0346E2
S11306805B007A689A4202D80123BB6001E002232E
S1130690BB60FA681E210848FFF738FF064B5B6809
S11306A023F48072BB681B02034913434B6000BFF1
S11306B01037BD4680BD00BF00800C4080B582B0BD
S11306C000AF1E210448FFF737FF78607B681846A7
S11306D00837BD4680BD00BF00800C4080B582B0A5
S11306E000AF214B5B6903F4E063B3F5007F1CD0DA
S11306F0B3F5007F05D8002B25D0B3F5807F1FD03C
S11307002AE0B3F5C06F24D0B3F5E06F1ED0B3F583
S1130710407F21D1FFF74AFF0346122B02D9134B26
S11307207B601CE0124B7B6019E0FFF73FFF034640
S1130730122B02D90F4B7B6011E00F4B7B600EE054
S11307400E4B7B600BE00E4B7B6008E00D4B7B6037
S113075005E00D4B7B6002E000237B6000BF7B68FB
S113076018460837BD4680BD00800C40804F1200FB
S113077040420F0040B56400C0CF6A00C0D8A70053
S1130780809FD500406F4001003FAB0180B582B02F
S113079000AF0D4800F0D2FC0346FB70FB78072B3A
S11307A005D0092B07D1FFF73BFD786006E0FFF782
S11307B095FF786002E000237B6000BF7B681846E9
S11307C00837BD4680BD00BF06000E0080B485B06A
S11307D000AF78603960204B5B6803F00703FB606F
S11307E0FB68012B01D9042B02D10023FB7202E028
S11307F00123FB7200BF7B68184A934207D9FB7A36
S1130800002B01D0052300E00423FB6016E07B6885
S1130810124A93420BD87B68114A934207D9FB7A58
S1130820002B01D0032300E00123FB6006E0FB7AE8
S1130830002B01D0022300E00023FB60064B5B6821
S113084023F007020449FB6813434B6000BF1437CD
S1130850BD4680BC704700BF00000C400048E80162
S11308600024F40080B582B000AF0E4BDB6B002B8C
S113087014BF01230023FB710A4B41F67132DA6382
S1130880FFF7C4FC034600211846FFF79FFFFB79DE
S1130890002B02D0034B0022DA6300BF0837BD46A9
S11308A080BD00BF00000C4080B584B000AF78600C
S11308B039600C4BDB6B002B14BF01230023FB734B
S11308C0084B41F67132DA6339687868FFF77EFFC6
S11308D0FB7B002B02D0034B0022DA6300BF1037EE
S11308E0BD4680BD00000C4090B585B000AF786077
S11308F00023BB607B68344A934203D0334A93425B
S113090000D000E000BF786800F018FC0346FB60EC
S11309107B682D4A934203D02C4A934206D00CE0C4
S11309202B4B9B6A03F00303FB6006E0284B9B6A96
S11309309B0803F00303FB6000BFFB68032B39D85B
S113094001A252F823F000BF7F09000059090000FA
S11309506109000069090000FFF7FAFCB8602DE0A6
S1130960FFF706FDB86029E0FFF736FC0446FFF701
S1130970A5FE0346013324FA03F3BB601EE0002303
S1130980BB607B68104A934203D07B680F4A934252
S113099013D10F4B9A6A7B680B498B4201D1102308
S11309A000E0142322FA03F3002B06D0FFF7D8FC4F
S11309B0B86002E00023BB6000E000BFBB681846DB
S11309C01437BD4690BD00BF02001E000300200086
S11309D000800C4080B483B000AF7860094B5B6D3D
S11309E003F00103002B07D100BF064B1A6D7B688F
S11309F01340002BF9D100E000BF0C37BD4680BC8A
S1130A00704700BF00800C4080B582B000AF104832
S1130A1000F094FB0346FB70FB78032B07D0092BF3
S1130A2009D0022B0BD1FFF7A3FC78600AE0FFF793
S1130A308FFC786006E0FFF7F3FB786002E00023A8
S1130A407B6000BF7B6818460837BD4680BD00BF89
S1130A500723260080B400AF00BFBD4680BC7047AA
S1130A6080B400AF00BFBD4680BC704790B585B070
S1130A7000AF78607B681B0903F00F03BB60BB68A1
S1130A80013B0C2B00F2AE8001A252F823F000BF10
S1130A90C50A0000E50B0000E50B0000D50A0000C4
S1130AA0E50B0000E50B0000E90A0000170B00004D
S1130AB0A30B0000E50B0000E50B0000E50B0000B4
S1130AC0FD0A00004B4B1B689B0B03F0070301332B
S1130AD0FB608AE0474B9B6803F00F03FB60F868F8
S1130AE0FFF73EFDF86080E0424B5B6803F00F03C4
S1130AF0FB60F868FFF734FDF86076E03D4B5B6817
S1130B001B0A03F00103FB60FB6801331846FFF77F
S1130B1027FDF86069E07B68374A934218D0364A6B
S1130B20934203D8354A934207D036E0344A93427D
S1130B3019D0344A934226D02FE02E4B9B6E1B09CA
S1130B4003F00F03FB60F868FFF70AFDF86027E085
S1130B50284B9B6E1B0A03F00F03FB60F868FFF73A
S1130B60FFFCF8601CE0234B9B6E1B0B03F003049B
S1130B701020FFF702FD03462344FB60F868FFF7EB
S1130B80EFFCF8600CE01B4B9B6E03F00303FB606F
S1130B90F868FFF7E5FCF86002E00123FB6000BFA2
S1130BA023E07B68184A934203D0184A93420AD040
S1130BB014E0104B1B6F03F00303FB60F868FFF7AE
S1130BC0CFFCF8600DE00B4B1B6F1B0903F0030314
S1130BD0FB60F868FFF7C4FCF86002E00123FB60E7
S1130BE000BF02E00123FB6000BFFB681846143716
S1130BF0BD4690BD00800C40802616008016120071
S1130C0080002A0080062E0090071A0090171C000E
S1130C1090B585B000AF786039607B681B0903F03C
S1130C200F03FB60FB68013B0C2B00F20F8101A258
S1130C3052F823F0690C00004D0E00004D0E000028
S1130C409D0C00004D0E00004D0E0000E50C000050
S1130C50370D0000F90D00004D0E00004D0E000090
S1130C604D0E0000C50C00003B68002B02D03B6811
S1130C70082B00BFFFF7F6FD774B1B6823F4E03227
S1130C803B68013B9B03744913430B60FFF7A4FAD1
S1130C90B8600021B868FFF707FED8E03B68002B76
S1130CA003D03B68B3F5007F00BF3868FFF765FCED
S1130CB03860694B9B6823F00F0267493B68134314
S1130CC08B60C4E03868FFF758FC0346013B3B6087
S1130CD0614B5B6823F480723B681B025E491343DB
S1130CE04B60B4E03B68002B03D03B68B3F5007F56
S1130CF000BFFFF7B7FDFFF76FFA02463B68B2FB90
S1130D00F3F31846FFF7A8FC3868FFF736FC3860A1
S1130D10514B5B6823F00F024F493B6813434B6010
S1130D20FFF75AFAB8600021B868FFF7BDFDB8684C
S1130D30FFF792FC8BE07B68484A93421ED0474AF7
S1130D40934203D8464A934207D054E0454A93421B
S1130D5025D0454A93423ED04DE00420FFF73AFEA9
S1130D603868FFF70AFC38603B4B9B6E23F0F002B7
S1130D703B681B01384913438B663CE00420FFF7B2
S1130D8029FE3868FFF7F9FB3860334B9B6E23F478
S1130D9070623B681B02304913438B662BE03B684F
S1130DA00F2B02D93B68802B00BF0420FFF712FEF3
S1130DB03868FFF7E2FB3860274B9B6E23F44054FE
S1130DC01020FFF7DAFB02463B689B1A1B03224AFA
S1130DD0234393660FE00420FFF7FCFD3868FFF718
S1130DE0CCFB38601C4B9B6E23F003021A493B6812
S1130DF013438B6600BF2AE07B681C4A934203D0EE
S1130E001B4A934210D020E04020FFF7E3FD3868EE
S1130E10FFF7B3FB3860104B1B6F23F003020E493E
S1130E203B6813430B6710E04020FFF7D3FD38689D
S1130E30FFF7A3FB3860084B1B6F23F030023B68BD
S1130E401B01054913430B6700BF00E000BF00BF4F
S1130E501437BD4690BD00BF00800C4080261600AC
S1130E608016120080002A0080062E0090071A00C7
S1130E7090171C0080B586B000AF78600B46FB70FD
S1130E8000233B617B681B0A03F00F03013B092B22
S1130E9044D801A252F823F0D30E0000D90E00006A
S1130EA0C10E00001D0F00001D0F0000DF0E00002A
S1130EB0E90E00001D0F00001D0F0000F30E0000DE
S1130EC0184B7B61FFF788F903461846FFF7C4FB0C
S1130ED012E0154B7B610FE0144B7B610CE0144B6B
S1130EE07B6101233B6107E0124B7B6110233B6173
S1130EF002E0114B7B6100BF7B681B0B03F01F03F7
S1130F00FB603B69002B02D03869FFF763FDFB7877
S1130F101A46F9687869FFF7F9FA00E000BF183754
S1130F20BD4680BD40800C4008800C4044800C408D
S1130F3058800C4060800C4078800C4090B585B09F
S1130F4000AF78607B6803F47813B3F5D01F00F02A
S1130F50B480B3F5D01F1AD8B3F5602F00F0C88061
S1130F60B3F5602F08D8B3F5003F45D0B3F5802F13
S1130F7036D0002B30D0D2E0B3F5901F45D0B3F576
S1130F80B01F50D0B3F5801F00F0B680C7E0B3F5B2
S1130F90181F00F0B580B3F5181F0BD8B3F5F01F78
S1130FA02ED0B3F5001F00F08380B3F5E01F00F0EE
S1130FB09180B4E0B3F5301F56D0B3F5301F03D899
S1130FC0B3F5281F3DD0AAE0B3F5381F63D0B3F5BD
S1130FD0781F00F09980A2E0FFF722F9F860A1E001
S1130FE0FFF71EF9F860524B9B6803F00F03FA6891
S1130FF022FA03F3FB6095E0FFF7EEF8F86091E066
S11310004C48FFF771FCF8608CE04A48FFF76CFC31
S1131010F860474B9B6E1B0903F00F03FA6822FA32
S113102003F3FB607EE04348FFF75EFCF860404B4F
S11310309B6E1B0A03F00F03FA6822FA03F3FB60AA
S113104070E03C48FFF750FCF860394B9B6E1B0B7B
S113105003F003041020FFF790FA03462344FA68D0
S113106022FA03F3FB605DE03248FFF73DFCF860D1
S11310702F4B9B6E1B0B03F00303FA6822FA03F356
S1131080FB602B4BDB6F03F007030133FA68B2FB01
S1131090F3F3FB6046E02748FFF726FCF860244B97
S11310A09B6E03F00303FA6822FA03F3FB6039E052
S11310B02148FFF719FCF86034E01F48FFF714FCDF
S11310C0F8601B4B1B6F03F00303FA6822FA03F367
S11310D0FB6027E01848FFF707FCF860144B1B6F10
S11310E01B0903F00303FA6822FA03F3FB6019E017
S11310F0FFF74CFBF86015E0FFF7F0FAF86011E039
S1131100FFF782FCF8600DE0FFF766F804467868A4
S1131110FFF7ACFC0346B4FBF3F3FB6002E00023EF
S1131120FB6000BFFB6818461437BD4690BD00BF86
S113113000800C4002001E000300200080B485B033
S113114000AF78600123FB737B6803F00F03BB607F
S1131150BB68013B062B00F2938001A252F823F0F6
S11311607D110000B3110000EF1100008112000096
S1131170811200002B1200004D120000454BDB6A67
S113118003F47053B3F5805F09D0B3F5005F03D067
S1131190B3F5006F06D008E00223FB7308E00323D5
S11311A0FB7305E00423FB7302E00523FB7300BF1C
S11311B069E0384B9B6A03F00303022B06D0032B30
S11311C007D0012B08D10323FB730FE00223FB7329
S11311D00CE00623FB7309E02E4B9B6A03F4803377
S11311E0002B02D00A23FB7300E000BF4BE0294B25
S11311F09B6A03F00C03082B06D00C2B07D0042B9E
S113120008D10323FB730FE00223FB730CE00623D6
S1131210FB7309E01F4B9B6A03F48013002B02D07D
S11312200A23FB7300E000BF2DE01A4B1B6803F098
S11312308053002B03D0B3F1805F03D023E0072356
S1131240FB7302E00923FB7300BF1CE0114BDB6A54
S113125003F46033B3F5803F08D0B3F5003F08D002
S1131260B3F5004F08D10923FB7308E00223FB7395
S113127005E00323FB7302E00123FB7300BF02E0DC
S11312800023FB7300BFFB7B18461437BD4680BCAC
S1131290704700BF00800C4080B588B000AF786014
S11312A00B46FB700323FB610323FB7600233B61A6
S11312B07B6803F00F03FB60FB68013B062B00F225
S11312C0288101A252F823F0E5120000BB130000AC
S11312D0BB13000013150000131500008114000057
S11312E0AB140000FB78023B082B00F2148101A22E
S11312F052F823F019130000231300002D130000EB
S11313006F130000171500001715000017150000D3
S113131017150000171500000423FB610023FB765A
S113132031E00323FB610123FB762CE00223FB6104
S11313300223FB76FFF752F9034601331846FFF701
S11313408BF9FEF7EDFF0246764B9A4206D9764BAF
S11313501B68754A43F06003136014E0724B1B680A
S113136023F06003704A43F0200313600BE0012371
S1131370FB610323FB76FFF731F90346013318467B
S1131380FFF76AF900BFFB7E01220121184600F035
S1131390EDF8FFF767FAFFF75DFB634AFB695362F9
S11313A0FEF71AFFB860B868FFF756F90021B8686D
S11313B0FFF77AFAFFF754FBB0E0FB78013B092B07
S11313C000F2AB8001A252F823F000BFF513000035
S11313D0FB1300000B1400001B1500001B1500007C
S11313E01B1400001B1500001B1500001B1500003A
S11313F03714000000237B6122E001220121002038
S113140000F0B4F802237B611AE0012201210120DB
S113141000F0ACF801237B6112E0FEF7DDFEB8605A
S1131420B868FFF719F9012204214048FFF76EF864
S113143003237B6104E000237B6101233B6100BF44
S1131440FB68022B0DD1384B9B6A23F4803323F0C5
S113145003037A691A433B691B04334913438B62C0
S11314605CE0314B9B6A23F4801323F00C037A690C
S113147092001A433B691B052B4913438B624DE0D1
S1131480FB78072B02D0092B07D047E0264B1B68BB
S1131490254A23F08053136006E0234B1B68224A3D
S11314A043F08053136000BF38E0FB78032B14D063
S11314B0092B22D0022B00D030E001220121002090
S11314C000F054F8184B40225A6200BF164BDB6AF6
S11314D003F48033002BF9D01AE00122012101200A
S11314E000F044F8104B60225A6200BF0E4BDB6AD6
S11314F003F40033002BF9D00AE00B4B20225A628C
S113150000BF094BDB6A03F40043002BF9D000BF92
S113151004E000BF02E000BF00E000BF2037BD468A
S113152080BD00BF0048E80100800C4040800C40B2
S113153080B483B000AF78600B4B9B6D03F008035D
S1131540002B0CD17B6803F007037B60064BDB6F39
S113155023F0070204497B681343CB6700E000BF14
S11315600C37BD4680BC704700800C4080B586B007
S113157000AF0346FB710B46BB7113467B71FB79CD
S1131580042B48D801A252F823F000BFD91500005B
S1131590CB150000AF150000A1150000BD1500001B
S11315A001233B610223FB6001237B611DE00423D3
S11315B03B610823FB6003237B6116E010233B613E
S11315C02023FB6005237B610FE040233B618023E4
S11315D0FB6007237B6108E04FF480733B614FF4A9
S11315E00073FB6009237B6100BFBB79002B0ED025
S11315F00B4A3B6913627B79002B0DD000BF7969DC
S11316000848FEF799FF0346002BF8D004E0044A8B
S1131610FB68136200E000BF1837BD4680BD00BF01
S113162000800C402C800C4080B483B000AF034693
S11316303960FB71FB79002B0DD0FB79012B0AD0AB
S1131640FB79022B07D0FB79032B04D0FB79042B05
S113165001D0FB79052B01223B6802FA03F3074909
S1131660FA7918461346DB0013449B000B441433E9
S1131670186000BF0C37BD4680BC70470060004056
S113168080B483B000AF03463960FB71FB79002B53
S11316900DD0FB79012B0AD0FB79022B07D0FB7903
S11316A0032B04D0FB79042B01D0FB79052B0122F9
S11316B03B6802FA03F30749FA7918461346DB003C
S11316C013449B000B441033186000BF0C37BD4615
S11316D080BC70470060004080B584B000AFB96042
S11316E07B600346FB731346BB73FB7B002B0DD05F
S11316F0FB7B012B0AD0FB7B022B07D0FB7B032B4C
S113170004D0FB7B042B01D0FB7B052BBB7B002B84
S11317100DD07B68002B05D0FB7BB9681846FFF71A
S1131720AFFF04E0FB7BB9681846FFF77DFFBB6899
S1131730072B20D82D49FA7B1346DB0013449B006A
S11317400B4404331A68BB689B000F2101FA03F3AE
S1131750DB431340B97BBA68920001FA02F21146E6
S11317602248FA7B19431346DB0013449B000344CD
S11317700433196025E01D49FA7B1346DB0013444A
S11317809B000B4408331A68BB6803F18043083B91
S11317909B000F2101FA03F3DB4302EA0301BA7B46
S11317A0BB6803F18043083B9B0002FA03F30F4834
S11317B0FA7B19431346DB0013449B0003440833AC
S11317C01960BB7B002B0DD17B68002B05D0FB7B04
S11317D0B9681846FFF754FF04E0FB7BB968184664
S11317E0FFF722FF00BF1037BD4680BD00600040F8
S11317F080B483B000AF0346FB71FB79002B06D0A5
S1131800084B1B68074A43F00103136005E0054BCE
S11318101B68044A23F00103136000BF0C37BD4664
S113182080BC704700A0084080B487B000AFF86067
S1131830B9607A60FB6803F10473DA00BB6813448F
S11318409B007B617B697A681A6000BF1C37BD46C8
S113185080BC704780B584B000AF78601A4B5B6879
S1131860FB600020FFF7C4FFFB6823F4830323F02D
S11318701F03FB607B685B68FA681343FB607B684B
S11318801B7A1A46FB681343FB607B685B7A1A4633
S1131890FB681343FB607B68DB68FA681343FB60F7
S11318A07B681B8A1A46FB681343FB60064AFB6885
S11318B053607B681B78002B02D00120FFF798FF50
S11318C000BF1037BD4680BD00A0084080B485B07D
S11318D000AF78600D4B5B68FB60FB6823F48033DA
S11318E0FB607B68002B08D0B3F5803F00D005E097
S11318F0FB6843F48033FB6000E000BF034AFB68ED
S1131900536000BF1437BD4680BC704700A0084038
S113191080B483B000AF03460A46FB8013467B7154
S11319207B79002B06D0094B9A68FB88074913433F
S11319308B6006E0054B9A68FB88DB430349134040
S11319408B6000BF0C37BD4680BC704700A00840C8
S113195080B584B000AFF860B9601346FB71FB68D2
S1131960072B00F2B38001A252F823F08D19000076
S1131970B5190000DD190000051A00002D1A000039
S1131980551A00007D1A0000A51A0000BB681F2B21
S113199006DCBB68FA7919464F48FFF745FF96E025
S11319A0BB68203BBB60BB68FA7919464B48FFF71C
S11319B03BFF8CE0BB681F2B06DCBB68FA79194639
S11319C04748FFF731FF82E0BB68203BBB60BB6840
S11319D0FA7919464348FFF727FF78E0BB681F2BC5
S11319E006DCBB68FA7919463F48FFF71DFF6EE035
S11319F0BB68203BBB60BB68FA7919463B48FFF7DC
S1131A0013FF64E0BB681F2B06DCBB68FA79194638
S1131A103748FFF709FF5AE0BB68203BBB60BB684F
S1131A20FA7919463348FFF7FFFE50E0BB681F2BD5
S1131A3006DCBB68FA7919462F48FFF7F5FE46E045
S1131A40BB68203BBB60BB68FA7919462B48FFF79B
S1131A50EBFE3CE0BB681F2B06DCBB68FA79194639
S1131A602748FFF7E1FE32E0BB68203BBB60BB6860
S1131A70FA7919462348FFF7D7FE28E0BB681F2BE5
S1131A8006DCBB68FA7919461F48FFF7CDFE1EE055
S1131A90BB68203BBB60BB68FA7919461B48FFF75B
S1131AA0C3FE14E0BB681F2B06DCBB68FA79194639
S1131AB01748FFF7B9FE0AE0BB68203BBB60BB6870
S1131AC0FA7919461348FFF7AFFE00E000BF00BFE4
S1131AD01037BD4680BD00BF40A0084050A008405C
S1131AE044A0084054A0084048A0084058A008401A
S1131AF04CA008405CA00840CCA00840B4A008401A
S1131B00D0A00840B8A00840D4A00840BCA0084019
S1131B10D8A00840C0A0084080B487B000AFF860E7
S1131B20B9607A60FB68072B00F2AC8001A252F81E
S1131B3023F000BF551B0000791B00009D1B000013
S1131B40C11B0000E51B00000D1C0000351C00003B
S1131B505D1C00004E4B1B6C7B61BB68DB437A69E8
S1131B6013407B61BA687B6813407A6913437B61D5
S1131B70474A7B69136486E0454B5B6C7B61BB68B9
S1131B80DB437A6913407B61BA687B6813407A69E6
S1131B9013437B613E4A7B69536474E03C4B9B6C0A
S1131BA07B61BB68DB437A6913407B61BA687B68FD
S1131BB013407A6913437B61354A7B69936462E01D
S1131BC0334BDB6C7B61BB68DB437A6913407B611D
S1131BD0BA687B6813407A6913437B612C4A7B693A
S1131BE0D36450E02A4BD3F8CC307B61BB68DB4331
S1131BF07A6913407B61BA687B6813407A6913433E
S1131C007B61234A7B69C2F8CC303CE0204BD3F89B
S1131C10D0307B61BB68DB437A6913407B61BA686F
S1131C207B6813407A6913437B61194A7B69C2F864
S1131C30D03028E0164BD3F8D4307B61BB68DB434B
S1131C407A6913407B61BA687B6813407A691343ED
S1131C507B610F4A7B69C2F8D43014E00C4BD3F893
S1131C60D8307B61BB68DB437A6913407B61BA6817
S1131C707B6813407A6913437B61054A7B69C2F828
S1131C80D83000E000BF00BF1C37BD4680BC7047A1
S1131C9000A0084080B487B000AFF860B9607A60F3
S1131CA0FB68072B00F2AC8001A252F823F000BFBE
S1131CB0D11C0000F51C0000191D00003D1D000092
S1131CC0611D0000891D0000B11D0000D91D000028
S1131CD04E4B1B6D7B61BB68DB437A6913407B61B0
S1131CE0BA687B6813407A6913437B61474A7B690E
S1131CF0136586E0454B5B6D7B61BB68DB437A69AA
S1131D0013407B61BA687B6813407A6913437B6133
S1131D103E4A7B69536574E03C4B9B6D7B61BB68B9
S1131D20DB437A6913407B61BA687B6813407A6944
S1131D3013437B61354A7B69936562E0334BDB6D0A
S1131D407B61BB68DB437A6913407B61BA687B685B
S1131D5013407A6913437B612C4A7B69D36550E055
S1131D602A4BD3F8B4307B61BB68DB437A691340F8
S1131D707B61BA687B6813407A6913437B61234AA9
S1131D807B69C2F8B4303CE0204BD3F8B8307B61B7
S1131D90BB68DB437A6913407B61BA687B68134094
S1131DA07A6913437B61194A7B69C2F8B83028E029
S1131DB0164BD3F8BC307B61BB68DB437A691340B4
S1131DC07B61BA687B6813407A6913437B610F4A6D
S1131DD07B69C2F8BC3014E00C4BD3F8C0307B6193
S1131DE0BB68DB437A6913407B61BA687B68134044
S1131DF07A6913437B61054A7B69C2F8C03000E00D
S1131E0000BF00BF1C37BD4680BC704700A008401F
S1131E1080B483B000AF7860064B5B6823F4E012B3
S1131E2004497B6813434B6000BF0C37BD4680BC3C
S1131E30704700BF00A0084080B485B000AF786050
S1131E401A4B5B69DBB29B00DBB203F03C03FB7310
S1131E50164B1B699B09DBB203F00303DAB2FB7B6D
S1131E601343FB737B68FA7B9A70104B1B69DBB2DC
S1131E7003F03F03DAB27B685A700C4B9B691B0971
S1131E80DBB21B01FB73094BDB691B09DBB203F0FB
S1131E900F03DAB2FB7B1343FB737B68FA7B1A7084
S1131EA000BF1437BD4680BC704700BFD0FF0FE0B1
S1131EB080B483B000AF78600B46FB70FB7843F0CE
S1131EC01003DBB21A467B689A6500BF0C37BD4627
S1131ED080BC704780B586B000AFF860B9607A60A6
S1131EE0FB70BB68002B03D12448FFF727F8B860C8
S1131EF0FB78202B0CD0202B02DC002B05D03AE001
S1131F00402B08D0602B09D035E010237B6108E01A
S1131F1008237B6105E006237B6102E004237B61E7
S1131F2000BFBB689A007B69796801FB03F35B0817
S1131F3013443B617B697A6802FB03F33A69B2FBA1
S1131F40F3F33B613B69043B3B613B699B013B61B0
S1131F503A690B4B13403B61FB681B6823F060023A
S1131F60FB681A60FB681A68FB781A43FB681A60FE
S1131F70FB683A695A611837BD4680BD4081040048
S1131F80C0FF1F0080B582B000AF786039607B6805
S1131F90284A93420ED07B68274A93420AD07B6832
S1131FA0264A934206D07B68254A934202D07B6836
S1131FB0244A934200BF786800F046F83B689B7C53
S1131FC0002B05D07B681B6843F080427B681A6055
S1131FD03B68DB7C002B05D03B681B7D1946786889
S1131FE0FFF766FF3B685B7B1A463B681B8A13431B
S1131FF03A68D2891A437B685A603B6859683B68DF
S11320009A683B681B7B7868FFF764FF3B685B7DDD
S1132010002B05D07B681B6843F480327B681A6010
S11320203B681B781A467B68DA6000BF0837BD46F8
S113203080BD00BF00C0004000C4004000C8004094
S113204000E0004000E4004080B483B000AF78605A
S11320507B68244A93420ED07B68234A93420AD079
S11320607B68224A934206D07B68214A934202D07D
S11320707B68204A934200BF7B6840F6AA62DA601C
S11320807B6800221A607B6841F205025A607B6813
S113209000229A607B6800225A617B680022DA641D
S11320A07B6841F6F9729A647B6800225A657B6802
S11320B00C4A934202D17B6800221A657B68002295
S11320C09A657B68084A934203D07B68074A934227
S11320D002D17B680022DA6500BF0C37BD4680BCA4
S11320E0704700BF00C0004000C4004000C800406A
S11320F000E0004000E4004080B483B000AF7860AA
S11321000B46FB7000BF7B681B6903F04003002B88
S1132110F9D0FA787B685A6300BF0C37BD4680BC9F
S11321207047000080B483B000AF0346FB71FB79B5
S1132130002B03D0054B01221A6602E0034B002258
S11321401A6600BF0C37BD4680BC704700A008402B
S113215080B483B000AF786000BF054B5A6E7B68D3
S11321601340002BF9D100BF0C37BD4680BC70472B
S113217000A0084080B483B000AF7860054B9A6A31
S11321807B68DB43034913408B6200BF0C37BD46B9
S113219080BC704700A0084080B500AF00222849E9
S11321A00020FFF7B9FC002225490120FFF7B4FC09
S11321B0002223490220FFF7AFFC0022204903201C
S11321C0FFF7AAFC00221E490420FFF7A5FC002209
S11321D01B490520FFF7A0FC002219490620FFF740
S11321E09BFC002216490720FFF796FC0022FF21E2
S11321F00020FFF74FFD0022FF210120FFF74AFDD9
S11322000022FF210220FFF745FD0022FF210320C9
S1132210FFF740FD0022FF210420FFF73BFD0022D1
S1132220FF210520FFF736FD0022FF210620FFF7DE
S113223031FD0022FF210720FFF72CFD00BF80BDE8
S113224000F00FF080B500AF002226490720FFF709
S113225063FC002224490620FFF75EFC0022224989
S11322600520FFF759FC00221F490420FFF754FC06
S113227000221D490320FFF74FFC00221A490220C7
S1132280FFF74AFC002218490120FFF745FC002211
S11322904FF020410020FFF73FFC002207210720D8
S11322A0FFF7F8FC002207210620FFF7F3FC0022C9
S11322B007210520FFF7EEFC002207210420FFF789
S11322C0E9FC002207210320FFF7E4FC0022072198
S11322D00220FFF7DFFC002207210120FFF7DAFCD0
S11322E000BF80BD00E00F5000E00FF080B582B069
S11322F000AF0346FB7101212448FEF7BBFD032117
S11323002348FEF7C9FF40212248FEF781FC012043
S1132310FFF70EF901212048FEF7ACFD4FF0FF3026
S1132320FFF728FF1D48FFF795FA01210820FFF762
S1132330EFFA01211020FFF7EBFA01218020FFF7CB
S1132340E7FA01214FF48070FFF7E2FA01214FF41C
S11323500070FFF7DDFAFB79002B0DD04FF440201D
S1132360FFF756FD4FF48030FFF7B0FA0C4BDB6FEC
S11323700B4A43F00803D367FFF70EFF4FF0FF301B
S1132380FFF7E6FE00BF0837BD4680BDD0433E00E0
S113239002001E0080002A0000362C00783700005E
S11323A000800C4080B58AB000AF78607B6842F250
S11323B00E72934202DD42F20F737B607B6813F569
S11323C07A7F01DC3D4B7B607B68002B06DA786802
S11323D000F082FB78600123BB6101E00023BB6154
S11323E04FF0FF30FFF7B4FE0120FFF79BFE00F033
S11323F06DF80123FB6100233B6254E07A68FB69BA
S113240092FBF3F22E4B83FB02139910D317C91AD4
S11324100B469B000B445B00D11A0B46FB82BB6945
S1132420012B04D13B6A032B01D11023FB82FB8ACD
S1132430244A32F81330BB8200237B6227E022490E
S11324403A6A1346DB009B1A5B00CA187B6A134482
S1132450CB331B783B611C493A6A1346DB009B1A59
S11324605B00CA187B6A1344C4331B78FB60BA8AC6
S11324707B6A42FA03F303F00103002B04D0012228
S11324803969F868FFF764FA7B6A01337B627B6A17
S1132490062BD4DDFA6913469B0013445B00FB61F1
S11324A03B6A01333B623B6A032BA7DD0020FFF745
S11324B039FE00BF2837BD4680BD00BF19FCFFFFB1
S11324C067666666543700009C34000080B500AF30
S11324D0002278210120FFF7DDFB00227821022071
S11324E0FFF7D8FB002278210320FFF7D3FB00225B
S11324F078210420FFF7CEFB002278210520FFF786
S1132500C9FB002278210620FFF7C4FB00227821B2
S11325100720FFF7BFFB00BF80BD000080B58AB075
S113252000AF7860786800F09FFB0346BB6100232E
S11325303B624FF0FF30FFF70BFE0120FFF7F2FD87
S1132540FFF780FE00233B6245E03A6ABB699A428A
S113255003DA7B681B787B6201E020237B627B6A61
S1132560203B7B62214A7B6A32F81330FB820023D2
S1132570FB6127E01E493A6A1346DB009B1A9B0065
S1132580CA18FB6913440E331B783B6118493A6A35
S11325901346DB009B1A9B00CA18FB6913441B7883
S11325A0FB60FA8AFB6942FA03F303F00103002B90
S11325B005D0FB68396901221846FFF7C9F9FB69A0
S11325C00133FB61FB690D2BD4DD7B6801337B6038
S11325D03B6A01333B623B6A062BB6DD0020FFF702
S11325E0A1FD00BF2837BD4680BD00BF9C3600005A
S11325F09C34000080B500AF0C48FFF78FFF4FF408
S11326007A7000F01BF80A48FFF788FF4FF47A70DD
S113261000F014F80748FFF781FF4FF47A7000F0D8
S11326200DF80548FFF77AFF00BF80BD8C37000026
S113263090370000943700009837000080B485B0CC
S113264000AF7860074B1B68FB6000BF054B1A683E
S1132650FB68D31A7A689A42F8DC00BF1437BD4687
S113266080BC7047B000002080B582B000AF0F4B33
S11326701B687B60786800F07FFA00F0A1FA0146DD
S11326800B4B83FB01235A10CB17D21A1346DB00E2
S11326901344CA1A931C074A1360064B1B68184656
S11326A0FFF780FE00BF0837BD4680BDB0000020A4
S11326B0398EE338A000002080B483B000AF034615
S11326C03960FB7197F90730002B0ADB3B68DAB2FB
S11326D00C4997F907305201D2B20B4483F8002316
S11326E00AE03B68DAB20849FB7903F00F03043BC4
S11326F05201D2B20B441A7600BF0C37BD4680BCDF
S1132700704700BF00E100E000ED00E080B582B05A
S113271000AF78607B68013BB3F1807F01D3012374
S11327200FE00A4A7B68013B536007214FF0FF30FA
S1132730FFF7C2FF054B00229A60044B07221A6080
S1132740002318460837BD4680BD00BF10E000E0F6
S113275080B400AF034BDB6C1B0EDBB21846BD46E6
S113276080BC7047B081E00F80B582B000AF0E4BE3
S113277001221A64FFF7ECFF0346FB713B1D184668
S1132780FFF75AFBFB790F2B0AD93B79022B07D9A8
S1132790064B1B6823F05003044A43F010031360F4
S11327A000BF0837BD4680BD00000C40C0800C400F
S11327B080B400AF044B1B680133034A136000BFAD
S11327C0BD4680BC704700BFB0000020B0B586B0E5
S11327D000AFFFF7C9FF2C48FEF7B0FB02462B4BB6
S11327E0A3FB02239B091846FFF790FF0346002B27
S11327F000D0FEE70020FFF779FD254B5B6C244AEF
S113280043F4005353640023012209210120FEF7FD
S113281063FF01211F48FEF72DFB0123042207213A
S11328200520FEF759FF1C4B3C461D460FCD0FC437
S113283095E8030084E803003B4619461748FFF770
S1132840A1FB0123042200210420FEF745FF134BC2
S11328505B6D124A43F480735365104B5B6D0F4AF2
S113286043F002035365FDF7E5FD0020FDF70EFE7E
S113287000F01EF9FFF7F8FEFFF7BCFE00F04EF87B
S113288000F0A4F8F4E700BF70000200D34D62101A
S113289000800C4000320400A037000000E000403B
S11328A080B485B000AF786039607B6803F104734D
S11328B0DA003B6813449B00FB60FB681B68184606
S11328C01437BD4680BC704780B582B000AF034664
S11328D03960FB71FB79002B0DD0FB79012B0AD0F9
S11328E0FB79022B07D0FB79032B04D0FB79042B53
S11328F001D0FB79052BFA791346DB0013449B00C6
S11329001C3303F1804303F5C04339681846FFF7CD
S1132910C7FF034618460837BD4680BD80B582B060
S113292000AF0020FDF7D2FD204B1B687B6000BF89
S113293009210120FFF7C8FF0346002BF8D11B4BE8
S11329401B681B4A13601A4B1B681A467B68D31A10
S11329501A46184B1A60174B1B68174A82FB03125E
S11329609211DB17D31A154A1360124B1A68124BD3
S113297083FB02139911D317CB1A4FF47A7101FB1D
S113298003F3D31A0E4A13600C4B1A680C4B1B68E2
S11329900C490D4800F048F90B48FFF7BFFD002033
S11329A0FDF794FD00BF0837BD4680BDB000002090
S11329B0B4000020AC000020D34D6210A800002019
S11329C0B8000020B8370000BC00002080B584B0F7
S11329D002AF124B1A68124B1968124B1B68009312
S11329E00B461149114800F01FF900237B600AE0EF
S11329F00E4A7B6813441B7819460D48FFF77CFB8D
S1132A007B6801337B607B68FF2BF1DD40F6B830D7
S1132A10FFF714FE00BF0837BD4680BDA0000020AC
S1132A20A8000020B8000020C0370000C400002027
S1132A3000E0004080B485B000AF786039607B6806
S1132A4003F10473DA003B6813449B00FB60FB68EA
S1132A501B6818461437BD4680BC704780B582B0E9
S1132A6000AF03463960FB71FB79002B0DD0FB7975
S1132A70012B0AD0FB79022B07D0FB79032B04D05E
S1132A80FB79042B01D0FB79052BFA791346DB0083
S1132A9013449B001C3303F1804303F5C04339689E
S1132AA01846FFF7C7FF034618460837BD4680BDE2
S1132AB080B500AF0020FFF775FC02E00548FFF782
S1132AC02DFD09210120FFF7C9FF0346002BF5D195
S1132AD000BF80BDD83700000028B8BF404270470F
S1132AE008B5074B044613B10021AFF30080054B32
S1132AF01868836A03B19847204600F0B9FC00BF08
S1132B0000000000E037000070B500250C4E0D4CAD
S1132B10A41BA410A54209D100F0ACFC00250A4E68
S1132B200A4CA41BA410A54205D170BD56F825304B
S1132B3098470135EEE756F8253098470135F2E716
S1132B40700000207000002070000020740000203D
S1132B5010B5431E0A44914200D110BD11F8014B37
S1132B6003F8014FF7E703460244934200D170474C
S1132B7003F8011BF9E7000038B50D4B05461C6846
S1132B80A36B7BB9182000F077F80A4A0A4BA063BC
S1132B90C0E90023094B012283600B2383810023B6
S1132BA0C0E904230022A36B1D615A6138BD00BF34
S1132BB00C0000200E33CDAB34126DE6ECDE0500C4
S1132BC038B5134B1C68A36B7BB9182000F054F87C
S1132BD0104A114BA063C0E90023104B012283600B
S1132BE00B2383810023C0E90423A16B0C480A69E9
S1132BF04B6950430B4C04FB0300A2FB0423034426
S1132C00541C43F10005C1E9044525F0004038BDDA
S1132C100C0000200E33CDAB34126DE6ECDE050063
S1132C202DF451582D7F954C0EB46FF0004100B532
S1132C309CB01DAB02900690079104910848094985
S1132C4053F8042B0591006802A9019300F01CF9C4
S1132C500022029B1A701CB05DF804EB03B07047AD
S1132C600C0000200802FFFF034613F8012B002A82
S1132C70FBD1181A01387047024B0146186800F05E
S1132C804FB800BF0C00002038B50546002943D0DA
S1132C9051F8043C0C1F002BB8BFE41800F0A9FB4A
S1132CA01E4A1368104633B9636014602846BDE8B1
S1132CB0384000F09FBBA3420BD9216862189342AD
S1132CC001BF1A685B685218226063600460EDE714
S1132CD013465A680AB1A242FAD919685818A04290
S1132CE00BD120680144581882421960DED1106863
S1132CF05268014419605A60D8E702D90C232B604A
S1132D00D4E7206821188A4201BF11685268091863
S1132D10216062605C60C9E738BD00BF9400002098
S1132D2070B5CD1C25F0030508350C2D38BF0C25D6
S1132D30002D064601DBA94203D90C233360002091
S1132D4070BD00F056FB214A1468214691B9204C0D
S1132D5023681BB9304600F015FB20602946304635
S1132D6000F010FB431C24D10C233046336000F0E8
S1132D7041FBE4E70B685B1B18D40B2B0FD90B60EA
S1132D80CC18CD50304600F035FB04F10B00231D68
S1132D9020F00700C31AD3D05A42E250D0E74B6860
S1132DA08C4216BF636013600C46EBE70C4649681F
S1132DB0CCE7C41C24F00304A04205D0211A3046F9
S1132DC000F0E0FA0130CFD02560DBE7940000206A
S1132DD0980000202DE9F0478E6882469E420C46FA
S1132DE09046994637D88A8912F4906F31D00223DD
S1132DF0256809696F1A656905EB450595FBF3F5C7
S1132E0009F101033B449D4238BF1D46530530D5AB
S1132E102946FFF785FF064650B90C234FF0FF30D3
S1132E20CAF80030A38943F04003A381BDE8F087CA
S1132E303A462169FFF78CFEA38923F4906343F09B
S1132E408003A38126613E4426604E466561ED1BE6
S1132E50A5604E4500D94E4632464146206800F0F2
S1132E60AFFAA36800209B1BA36023681E4426605E
S1132E70DCE72A4600F0BFFA06460028E2D12169C1
S1132E805046FFF701FFC8E72DE9F04F9DB00393CB
S1132E908B8980461D060C4616460FD50B696BB907
S1132EA04021FFF73DFF2060206128B90C23C8F8BA
S1132EB000304FF0FF30C7E04023636100230993E3
S1132EC020238DF8293030234FF0010B8DF82A3060
S1132ED037463D4615F8013B0BB1252B3ED1B7EBE8
S1132EE0060A0BD05346324621464046FFF772FF8E
S1132EF0013000F0A480099B534409933B78002BD4
S1132F0000F09D8000234FF0FF32CDE905230493A8
S1132F1007938DF853301A932F46052217F8011B97
S1132F204F4800F03FFA049BD0B9D90644BF202291
S1132F308DF853201A0744BF2B228DF853202A788A
S1132F402A2A15D02F4600200A25079A394611F857
S1132F50013B303B092B4DD9B8B10FE02F46B8E700
S1132F603F4A3D46801A0BFA00F018430490D3E719
S1132F70039A111D12680391002A01DB079204E0F1
S1132F80524243F00203079204933B782E2B0CD158
S1132F907B782A2B33D1039B02371A1D1B680392BB
S1132FA0002BB8BF4FF0FF3305932E4D0322397821
S1132FB0284600F0F7F938B14023401B03FA00F02B
S1132FC0049B0137034304933978062226487E1C68
S1132FD08DF8281000F0E6F9002838D0234B13BBF5
S1132FE0039B073323F0070308330393099B4B44E4
S1132FF009936DE705FB023201200F46A6E7002383
S11330000A25194601370593384610F8012B303A42
S1133010092A03D9002BC8D00591C6E705FB012175
S113302001230746F0E703AB00932246104B04A9A3
S11330304046AFF30080B0F1FF3F8146D6D1A3896B
S11330405B063FF536AF09981DB0BDE8F08F03ABC2
S113305000932246064B04A9404600F081F8EAE7B3
S1133060E4370000EA370000EE37000000000000FB
S1133070D52D00002DE9F04791461F468A680B695B
S113308006469342B8BF1346C9F8003091F843206E
S11330900C46DDF8208012B10133C9F800302368F2
S11330A0990642BFD9F800300233C9F800302568C8
S11330B015F0060507D104F1190AE368D9F80020D0
S11330C09B1AAB4229DC94F843302268003318BFC2
S11330D0012392062ED404F1430239463046C047F8
S11330E0013021D02368E56803F00603042B18BFE0
S11330F00025D9F800204FF0000908BFAD1AA368D5
S1133100226908BF25EAE5759342C4BF9B1AED18EE
S11331101A344D451AD1002008E00123524639469D
S11331203046C047013003D14FF0FF30BDE8F0878F
S11331300135C2E73020E11881F843005A1C94F8A5
S113314045102244023382F84310C4E70123224687
S113315039463046C0470130E6D009F10109D8E7C5
S11331602DE9F04301F1430C0C46097E85B06E292C
S11331701746064698460C9A00F0B38022D8632975
S113318036D00AD8002900F0B980582900F083808D
S113319004F1420584F8421032E0642901D069291F
S11331A0F6D120681368050603F104012AD51B68CB
S11331B01160002B03DA2D225B4284F843206F4810
S11331C00A2239E0732900F09D8008D86F2920D0A5
S11331D07029DDD1236843F02003236003E07529BF
S11331E017D07829D4D17823654884F8453055E040
S11331F0136804F14205191D1B68116084F84230FC
S113320001238CE01B6810F0400F116018BF1BB243
S1133210CFE713682568181D1060280601D51B68C0
S113322002E06806FBD51B886F2914BF0A22082216
S11332305248002184F843106568002DA560C0F24F
S11332409580216821F004012160002B3DD1002DDF
S113325040F08E806546082A0BD12368DB0708D529
S1133260236962689A42DEBF302305F8013C05F108
S1133270FF35ACEB05032361CDF800803B4603AA80
S113328021463046FFF7F6FE01304DD14FF0FF30B6
S113329005B0BDE8F083394884F845101368216807
S11332A01D1D1B6815600A060BD5CA0744BF41F0F3
S11332B0200121601BB9226822F020022260102222
S11332C0B7E74D0648BF9BB2EFE76546B3FBF2F1A3
S11332D002FB1133C35C05F8013D0B460029F5D10F
S11332E0B9E713682568181D6169106028061B6812
S11332F001D5196002E06A06FBD5198000236546F2
S11333002361B9E71368191D11601D686268002103
S1133310284600F047F808B1401B606063682361E9
S1133320002384F84330A7E723692A463946304608
S1133330C0470130AAD023689B0713D4E068039BDD
S11333409842B8BF1846A3E701234A463946304697
S1133350C04701309AD00135E368039A9B1AAB4207
S1133360F2DCEBE7002504F11909F5E7002BACD1F9
S1133370037804F1420584F842306CE7F537000025
S11333800638000038B50023054C0546084623607E
S113339000F060F8431C02D1236803B12B6038BDF0
S11333A0C401002010B5C9B202449042034601D1C1
S11333B0002303E01C7801308C42F6D1184610BD7E
S11333C0884210B501EB020307D8421E99420AD085
S11333D011F8014B02F8014FF8E78342F5D981183F
S11333E0D21AD34200D110BD13F8014D01F8014D9A
S11333F0F7E770477047F8B5074614460E4621B9FB
S1133400BDE8F8401146FFF78BBC22B9FFF73CFC3E
S113341025462846F8BD00F014F8A0420FD22146F4
S11334203846FFF77DFC05460028F2D03146224697
S1133430FFF78EFB31463846FFF726FCE9E73546B1
S1133440E7E751F8043C181F002BBCBF0B58C01809
S113345070470000044A05491368002B08BF0B4657
S113346018441060184670479C000020C8010020D2
S1133470FEE700BFF8B500BFF8BC08BC9E46704725
S1133480F8B500BFF8BC08BC9E46704704000000B5
S11334900200000004000000030000000101050711
S11334A0070304020302040605060D0E0E0E0D0D9D
S11334B00D0D0E0E0E0E0D0D01010507070304027E
S11334C00302040605060F1010100F0F0F0F101043
S11334D010100F0F0101050707030402030204067D
S11334E005061112121211111111121212121111D8
S11334F00101050707030402030204060506131C61
S11335001C1C131313131C1C1C1C13130001050790
S1133510060203010302040604051D1E1E1E1D1DD2
S11335201D1D1E1E1E1E1D1D000105070602030192
S11335300302040604051F2020201F1F1F1F202034
S113354020201F1F010105070703040203020406CC
S11335500506212222222121212122222222212187
S1133560070502010306042323232323232307053A
S1133570020103060424242424242424070502012C
S1133580030604252525252525250705020103060F
S11335900426262626262626000107020627272794
S11335A027270000000000000000131211100F0E66
S11335B00D0C00000000212524260101030404024F
S11335C003020D0E0D0D0E0D0E0E01010304040277
S11335D003020F100F0F100F101001010304040257
S11335E00302111211111211121201010304040237
S11335F00302131C13131C131C1C000102030401FB
S113360003021D1E1D1D1E1D1E1E000102030401BA
S113361003021F201F1F201F202001010304040296
S11336200302212221212221222205070704040664
S113363005060E0E0D0D0E0E0D0D050707040406EE
S1133640050610100F0F10100F0F050707040406CE
S113365005061212111112121111050707040406AE
S113366005061C1C13131C1C131305070603040670
S113367004051E1E1D1D1E1E1D1D05070603040632
S1133680040520201F1F20201F1F05070704040610
S113369005062222212122222121000000000011FE
S11336A080020000000002060000200039000F0024
S11336B00000401500204004001000223F000600D6
S11336C05B044F0466046D047D0407007F046F04EB
S11336D000000000000A000080200000FFFF7704C3
S11336E0790A3900B020790071007D04760406005F
S11336F00E00700A3800B602B6083F0073043F0893
S1133700730C6D0401113E0030223628802A6E04A9
S11337100922390080080F00010008000001581038
S11337207C0458005E04582071040C0C74040400DA
S11337300E00700C3800541454045C0473046704C1
S11337405004080C78001C0010201428802A0C084F
S1133750482000003F0006005B004F0066006D003B
S11337607D0007007F006F0077007C0039005E0059
S113377079007100400000000100000003004000D7
S11337800C000000000000000000000033000000F6
S113379032000000310000005374617274000000B4
S11337A0050000000000000000C201000005000048
S11337B0001000000000000025642E2564000000B5
S11337C05245513A2564205245414C3A25642E25F0
S11337D064200A0D0000000052656164793F000016
S11337E010000020232D302B2000686C4C006566EF
S11337F0674546470030313233343536373839413E
S11338004243444546003031323334353637383953
S10F381061626364656600000000000053
S10B381C00C9FF7F0100000058
S1133824006CDC0200800000809FD50010000020A2
S11338340000000000000000000000000000000080
S11338440000000000000000000000000000000070
S11338540000000000000000000000000000000060
S11338640000000000000000000000000000000050
S11338740000000000000000000000000000000040
S11338840000000000000000000000000000000030
S10B389401010000DD00000049
S90301916A
